:1000000001308A00E7290000D2224410CC24472482
:10001000541020100000532A4F28A010A1102010C7
:1000200020004729C5224E10CC244724541020001C
:10003000C727A020C822412220100001D9224C2627
:10004000CF2B2026C923482A00015326CF2B20225C
:10005000CF2B4E00333084008313000803193D2852
:100060000630F800F701F70B3328F80B32287B3005
:10007000F700F70B3928800B30280800390EF039CB
:10008000F7000F30080577048800000008140230DC
:10009000F700F70B49284C28000008100800080852
:1000A000F700080E0F39F8000800831608108810B2
:1000B0000811831288100F3083160805F038880065
:1000C000831208150000081400004F207808B900BA
:1000D0000810000008146C286D2800004F207808D4
:1000E000B80008100F308316080588008312390EF7
:1000F000F700F030F70577083804F8007808B80002
:10010000B81B5B28361C88103618881400000811AC
:1001100000000810370EB8000F30B8053808B900D5
:100120003E2037080F39B800B9003E2008002830BB
:10013000AF000C30B0000130B1000630B200081042
:10014000881008110F3083160805880008108810E1
:1001500008110F308312B3002A200130AE002E08A0
:10016000033C031CBB280330B9003E200530B3001C
:100170002A20AE0AAF280230B9003E200530B30075
:100180002A20AE012E08033C031CD2282F302E0754
:10019000840083130008B300B6013308B70055206C
:1001A000AE0AC2288A110A121D2A0130B600B70110
:1001B00055200130B6000630B70055208A110A12CA
:1001C0001E2A330BE428E7284030B400E828B401A5
:1001D00001303202B40734088038B500B601350862
:1001E000B700552008003108073A031901290B3AD6
:1001F00003190629063A03190E29023A031914298C
:1002000019290130B200B300E1201E29B6010130E6
:10021000B70055200230B3002A201E290130B20059
:100220000230B300E1201E29B6011030B70055207E
:100230001E290130B6003108B700552008000B0810
:10024000AE008B13831603178C170C1400000000EC
:1002500083120313AE1B8B1703170C087F39031986
:1002600073290313AE0003170D080313AF00031720
:100270000F080313B0002E08B100F3202F08031756
:100280008D000313300803178F0003130B08B10010
:100290008B13831603178C170C14000000008312B5
:1002A0000313B11B8B1703170C0D0E0D7F390319A8
:1002B00073290313AE0003170D080313AF000317D0
:1002C0000F080313B0002E08B100F3202F08031706
:1002D0008D000313300803178F008D0A03198F0A4E
:1002E00003131F290317031308002E082F06803954
:1002F000B100AE1F7D29AE09AE0AAF1F8129AF093B
:10030000AF0A2F08F8012E02031889292E08F700DA
:100310009529F7010830B000AE0DF70D2F087702D0
:100320000318F700F80DB00B8C29B11F9929F809B3
:10033000F80A0800B0013008073C031CB929AF1BBC
:10034000A3298710A4298714AD102D0883168700D0
:1003500083122D102D0883168700831207102D108D
:100360002D0883168700831207140310AF0DB00AFF
:100370009B2908002C08AE000A30AF0075212230FE
:100380007807840083130008AE00AF009A212C0880
:10039000AE000A30AF007521223077078400831346
:1003A0000008AE00AF009A212D112D08831687009A
:1003B000831207112D112D0883168700831207154C
:1003C000AD112D08831687008312871108000308DA
:1003D0001F398300FF30AD00831603170908C039A9
:1003E000890003131F129F12003003178800831225
:1003F00087018801890183130313A001A101C03083
:10040000A200F930A300A430A400B030A5009930B8
:10041000A6009230A7008230A800F830A9008030F2
:10042000AA009030AB00003083168800870083124A
:10043000AD008316860083129728D5280130B200BC
:10044000B300E120043003178D0000308F00031348
:100450001F210130B2000230B300E1200B3003173E
:100460008D0000308F0003131F21831606108312A6
:1004700006148316861083128610831606118312C3
:1004800006111630AC00AC1B4F2ABA210430AE0066
:10049000E130B3002A20AE0B482AAC03432A83166E
:1004A0008610831286148316061083120610831694
:1004B0000611831206110130B200B300E1201130A1
:1004C00003178D0000308F0003131F210130B2008D
:1004D0000230B300E120183003178D0000308F0088
:1004E00003131F210F30AC00AC1B802ABA2104304B
:1004F000AE00E130B3002A20AE0B792AAC03742A97
:100500008316061183120615831606108312061031
:1005100083168610831286100130B200B300E120EA
:100520001E3003178D0000308F0003131F21013090
:10053000B2000230B300E120253003178D000030F7
:100540008F0003131F210530AC00AC1BB12ABA2168
:100550000430AE00E130B3002A20AE0BAA2AAC036F
:06056000A52A1E2A63001B
:04400E00E22CFF3F62
:00000001FF
;PIC16F887
;CRC=8732  CREATED="20-Jul-21 13:59"
